S012000043616D6572615F5446542E737265637C
S11300000C94E5010C9402020C9402020C9402027A
S11300100C9402020C9402020C9402020C9402024C
S11300200C9402020C9402020C9402020C9402023C
S11300300C9402020C9402020C9402020C9402022C
S11300400C9402020C9402020C9402020C9402021C
S11300500C9402020C9402020C9402020C9402020C
S11300600C9402020C9402020C9402020C940202FC
S11300700C9402020C9402020C940202000B09215B
S11300805F3B00010004000B0010001A0021002255
S113009000250028002D003400360039003A003FC6
S11300A000440049004E00530059005E006300689C
S11300B0006D007200730075007B00820088008C64
S11300C00094009A00A000A700AE00B300B800BFDF
S11300D000C500C800CC00D200D700DE00E400EB6D
S11300E000F000F700FD0103010A01100116011FD1
S11300F00125012C01320135013A013D0144014B36
S1130100014D01520157015C01610166016A016FF1
S1130110017401750178017D017E0187018C0191D3
S11301200196019B019F01A301A701AC01B101B894
S113013001BD01C201C601CB01CC01D101D801D856
S1130140500400004C2000020000000000000000E9
S1130150000000000000000000000000000000009B
S11301600000000000003C380010200080C1098419
S11301700000000000000000007C00D1446218521E
S1130180A80002E239C17CDF73800000E3E33C3D58
S1130190F3FF3D0F78618F139E39E3DFE186230C73
S11301A01FE408800820008101008400000000088A
S11301B0000000009200D14F9224527080051E4628
S11301C02341018C400000141322430A10430A18EF
S11301D0A18F14514514222186230A20620940006C
S11301E0200081010084000000000800000000924B
S11301F00087F4942421A8800512042542028C6807
S1130200603019D4A2810610810A192156983183CD
S113021014022185549140A20A2003BCE7BBDFEB02
S11302208FDDE779F6FF18C98C7C920082946419FB
S1130230212080091208C97BC274699FCC2A54BE4C
S11302408107FE81FA1A21569831831302214954F9
S11302506081210C10006318C52319962318C63930
S11302600918C952849231828E09A52107F3891293
S1130270103106248BC600034A54A18106108F0A4C
S11302801E2126583E83E0C2214954608221080081
S113029003E308FD2319A62318C631891555228BBB
S11302A011C98FC50A622100801112203F8624885B
S11302B0419FCC4A5FE1810610830A1921265830F8
S11302C08320222149549084208800046308C12398
S11302D019E62318C6306915552290924605051271
S11302E06321008451124221462888A8603009A85D
S11302F061430A10430A18A10634504514222130E0
S1130300890888208800046318C52319962318C611
S11303103029122251209200851E119C9200846083
S1130320EFFDC139C87328000044087E3DF3F03D59
S11303300FE87F063390390BC21E3089088FE048DE
S11303400003FCE7B91F198E231779F1C6F222893D
S11303503C92000004000012000420000000000091
S11303600008000003C000000000000000000000BE
S11303700008000000000000002048000000000009
S1130380020100000040200000000100920000046F
S113039000000C0008000000000000001000000035
S11303A00000000000000000000000000600000043
S11303B00000000038380FE00000001C06000000B8
S11303C0402000000002007C000011241FBECFEF7B
S11303D0D0E1DEBFCDBF11E0A0E0B1E0E6EFF1E196
S11303E002C005900D92A435B107D9F711E0A4E538
S11303F0B1E001C01D92AA35B107E1F70E940502E0
S11304000C94F9080C94000008950E94B504E0913E
S11304100001F091010180E090E060E070E040EFC5
S113042050E020E431E08F010E9424020E94A302E4
S113043080E090E060E070E04FE150E00E946708E7
S1130440FFCF0E94B50408958F929F92AF92BF92FE
S1130450CF92DF92EF92FF920F931F93CF93DF938C
S1130460EC015B0148018C01040F151F7B01E20EB6
S1130470F31E0E9426060817190724F00E94260678
S1130480082F192F0E942906E816F90624F00E9465
S11304902906E82EF92EDD2314F4C0E0D0E068012B
S11304A0CC1ADD0A1C141D040CF03DC08501BB20D0
S11304B014F400E010E0E01AF10A1E141F049CF585
S11304C0CE01B801A60197010E94F205CE01B80140
S11304D00E941E06C4010E942C0681E8E816F1045D
S11304E0CCF086011695102F002717950795E70184
S11304F0C8010E942107C058D040C138D105C4F7B3
S1130500C7018058904097012158304020787C01E1
S1130510E21AF30ACE9CC001CF9C900DDE9C900D94
S113052011240E942107DF91CF911F910F91FF9019
S1130530EF90DF90CF90BF90AF909F908F900895F1
S11305400E942C0608950E9431068FEF9FEF90932E
S11305505501809354019093570180935601089557
S11305600F931F93CF93DF93EC018B010E94260618
S1130570C817D90780F50E9429060817190758F5E6
S113058022C080915401909155010817190769F010
S1130590CE01602F712F0E941E06D0935701C09385
S11305A05601009354011093550181E090E00E949C
S11305B0210780915601909157010196909357011C
S11305C08093560108C08091560190915701C81735
S11305D0D907F1F6D6CFDF91CF911F910F910895EE
S11305E02F923F924F925F926F927F928F929F923F
S11305F0AF92BF92CF92DF92EF92FF920F931F932D
S1130600CF93DF9300D000D0CDB7DEB72C014032BA
S1130610510551F4EDE7F0E0E4916E2E77247594E2
S1130620679475946794C4C0EFE7F0E0E4914E1BBF
S1130630510955230CF4B7C0A0E8B0E0FD01849142
S113064090E0481759070CF0B1C0CA0103969C0109
S1130650220F331FF901E458FF4F9491F901E35835
S1130660FF4F8491F92FE0E090E03F01682A792A56
S11306700DE710E0F801F491F9831416150684F4DB
S1130680F901E658FF4F9491F901E558FF4F849121
S1130690592F40E090E0482B592B641A750A02C088
S11306A040E050E0FD01849190E00396829592959C
S11306B0907F9827807F9827480F591F9A012770A9
S11306C0307080E890E002C0959587952A95E2F70E
S11306D0A82F9A0135952795359527953595279512
S11306E0E1E8F0E0E491CA01860D971D95958795A0
S11306F0959587959595879580959095820F931FED
S11307001C012E0E311CF981FF2309F451C0A62EC1
S1130710B72E8824D62CAA830F2EF0E8CF2EF02DE6
S1130720992479010894E11CF11CF901E458FF4F64
S1130730E491DD2061F18A818B83EC8300E010E099
S11307408B819C81892331F0C801840D951DB501ED
S11307500E94B002EB81E695EB83EE23A1F4F7014E
S1130760E458FF4F0894E11CF11CE491EE2349F492
S1130770C301801B910B893091054CF0CB829C8284
S113078002C0EC83CB820F5F1F4F0D15C8F2970197
S1130790220D331D83940894A11CB11CF9818F167A
S11307A009F0BFCF05C06624772402C066247724ED
S11307B0862D972D0F900F900F900F90DF91CF9172
S11307C01F910F91FF90EF90DF90CF90BF90AF906B
S11307D09F908F907F906F905F904F903F902F905D
S11307E00895AF92BF92CF92DF92EF92FF920F9350
S11307F01F93CF93DF93082F192F6B01EA0159013F
S11308000E94A3021C141D04A4F4E02EF12E00E0A7
S113081010E0F70141917F01CE01B50150E00E9443
S1130820F0020196C80FD91F0F5F1F4F0C151D054D
S113083081F7DF91CF911F910F91FF90EF90DF909F
S1130840CF90BF90AF900895CF93DF939B01EA01BF
S1130850E82FF92FDF010D900020E9F71197BD0172
S11308606E1B7F0BA9019E010E94F103DF91CF91C2
S11308700895FC01A62FB72F03C09191891729F47D
S11308808D918823D1F781E0089580E008951F9326
S1130890CF93DF93EB01982F91509E3F90F08823E4
S11308A019F082E090E002C080E090E0C80FD91F08
S11308B0888199810E942C0688E090E00E9421079B
S11308C00BC018E0888199810E942C0681E090E099
S11308D00E9421071150B1F7DF91CF911F91089524
S11308E0CF92DF92EF92FF920F931F93CF93DF93F8
S11308F08C016B01EA01790148E050E028E030E026
S11309000E94F205C801B6010E941E068E01085F0E
S11309101F4F8991B7010E944704C017D107C9F737
S1130920DF91CF911F910F91FF90EF90DF90CF90C7
S11309300895089585B7806885BF85B7806885BFA9
S11309408FE781B98FEF87B90895009769F020E0A8
S113095030E0E9EFF0E03197F1F700C000002F5FDD
S11309603F4F28173907A9F708950E949A0412984F
S113097084E690E00E94A504129A84E690E00E9426
S1130980A504149A139A159A10981198169A149803
S113099088E288B91398139A149A149881E188B953
S11309A01398139A149A8CE390E00E94A504149867
S11309B08BEC88B91398139A149A81E088B9139828
S11309C0139A149880EC88B91398139A149A86E2AF
S11309D088B91398139A88E088B91398139A1498CD
S11309E081EC88B91398139A149A80E188B9139802
S11309F0139A149885EC88B91398139A149A85E37A
S1130A0088B91398139A8EE388B91398139A149893
S1130A1086E388B91398139A149A80E488B91398D2
S1130A20139A149880EB88B91398139A149A8AE449
S1130A3088B91398139A149881EB88B91398139A68
S1130A40149A18B81398139A8BE188B91398139AC7
S1130A50149886EB88B91398139A149AEEE4F1E08B
S1130A60CF010496219128B91398139AE817F9072E
S1130A70C9F7149887EC88B91398139A149A85EBDC
S1130A8088B91398139A149886EF88B91398139A0F
S1130A90149AEAE4F1E0CF010396219128B913985E
S1130AA0139AE817F907C9F7149882EF88B91398CD
S1130AB0139A149A18B81398139A149886E288B95A
S1130AC01398139A149A81E088B91398139A149876
S1130AD08AE388B91398139A149A85E588B9139808
S1130AE0139A149880EE88B91398139A149AEAE327
S1130AF0F1E0CF010F96219128B91398139AE817C2
S1130B00F907C9F7149881EE88B91398139A149ABF
S1130B10EAE2F1E0CF010F96219128B91398139AD4
S1130B20E817F907C9F714988AE288B91398139A51
S1130B30149AE5E2F1E0CF010496219128B91398C3
S1130B40139AE817F907C9F714988BE288B9139830
S1130B50139A149AE0E2F1E0CF010496219128B9A6
S1130B601398139AE817F907C9F7149884E388B916
S1130B701398139A149A149884EB88B91398139AB7
S1130B80149A18B81398139A149887EB88B9139881
S1130B90139A149A87E088B91398139A14988CE2DC
S1130BA088B91398139A149A20EF30E040E451E086
S1130BB00BC018B81398139A18B81398139A01977E
S1130BC0C1F72150304011F0CA01F3CF149889E2E3
S1130BD088B91398139A149A82E390E00E94A504AA
S1130BE0119A08951498EAE2E8B91398139A149A9A
S1130BF098B91398139A88B91398139A840F951F68
S1130C00019798B91398139A88B91398139A14985A
S1130C108BE288B91398139A149A78B91398139A93
S1130C2068B91398139A620F731F6150704078B9B2
S1130C301398139A68B91398139A089514988CE228
S1130C4088B91398139A149A0895089580EF90E040
S1130C50089580E491E00895909359018093580198
S1130C600895CF93DF930E942606EC010E94290683
S1130C709C0180E090E060E070E0AE010E94F2052B
S1130C80DF91CF910895FB012FEF27B942B1542F83
S1130C90577F282F2370B9F0322FDB016C9168B98C
S1130CA052B942B911966C91119768B952B942B9C7
S1130CB01296315099F7215030E02F5F3F4F220FA9
S1130CC0331FE20FF31F95958795959587950097A8
S1130CD031F122B1322F377F408148B932B922B97C
S1130CE0418148B932B922B9428148B932B922B9ED
S1130CF0438148B932B922B9448148B932B922B9D9
S1130D00458148B932B922B9468148B932B922B9C4
S1130D10478148B932B922B938960197E9F608955E
S1130D20FF920F931F93CF93DF938C01EB01BA01D2
S1130D3022B1322F377F009791F1FF24FA9450E0CB
S1130D400F3F110514F4802F01C08F2D4881952F7A
S1130D5001C04E2FA42FB0E0AA0FBB1FA60FB71FD0
S1130D60EC91E8B932B922B91196EC911197E8B92E
S1130D7032B922B99F5FFE01E90FF11DE0814E17E0
S1130D8059F4981768F390E0081B190BC80FD91F82
S1130D9001151105A9F603C09817D8F2F4CFDF9115
S1130DA0CF911F910F91FF9008952FEF27B9282F0E
S1130DB0277041F068B91398139A48B91398139A95
S1130DC02150C1F796958795969587959695879521
S1130DD0009799F122B168B91398139A48B91398F6
S1130DE0139A68B91398139A48B91398139A68B95F
S1130DF01398139A48B91398139A68B91398139AC5
S1130E0048B91398139A68B91398139A48B9139860
S1130E10139A68B91398139A48B91398139A68B92E
S1130E201398139A48B91398139A68B91398139A94
S1130E3048B91398139A019771F608950E94D5063C
S1130E40089540915801609159010E94D506089572
S1130E50CF93DF93EC01CB010E942C06CE010E94BC
S1130E602107DF91CF910895089580E480937C0059
S1130E7087E880937A000895EF92FF920F931F936F
S1130E80CF93DF93DB01ECE7F0E09081987F9083D0
S1130E9090818770982B9083EAE7F0E080818068E6
S1130EA08083808180648083808184FFFDCF44239C
S1130EB031F1CD0102964150242F30E0220F331F2F
S1130EC0280F391FEAE7F0E00F2EF8E7EF2EFF2492
S1130ED0F02D49E750E0808180648083808184FF25
S1130EE0FDCFE7018881EA019881192F00E0B8015C
S1130EF0680F711D6D937D93A217B30761F7EAE73D
S1130F00F0E080818F778083DF91CF911F910F91E3
S1130F10FF90EF9008954F925F926F927F928F921D
S1130F209F92AF92BF92CF92DF92EF92FF920F9374
S1130F301F932B013C01BA01A901D801C7019601F5
S1130F4085016C017D01C41AD50AE60AF70A53012A
S1130F504201841A950AA60AB70AC501B401A90177
S1130F6098010E949D08AB01BC01D701C601B5954B
S1130F70A795979587958A019B01080F191F2A1F2A
S1130F803B1FC901B801A70196010E94BC08822F2A
S1130F90932F1F910F91FF90EF90DF90CF90BF9010
S1130FA0AF909F908F907F906F905F904F90089537
S1130FB0AF92BF92CF92DF92EF92FF920F931F9363
S1130FC0CF93DF937C016B015A01FB01E40FF51F02
S1130FD0EE7FE80FF91F60817181E6012EC0219632
S1130FE08F012191319126173707CCF3CA01880F5D
S1130FF0991FD701A80FB91F8D919C91119768175C
S113100079077CF4FA013197EE0FFF1FEE0DFF1DF7
S113101041505040DF0132978281938168177907EC
S1131020BCF34C175D07FCF0F801918380831196A3
S11310303C932E932196415050404C175D079CF0F1
S1131040CE01880F991F8701080F191FF80120810D
S113105031812617370754F6FE013196EE0FFF1F34
S1131060EE0DFF1DBCCFC416D50624F4C701B6018E
S11310700E94D807CA15DB052CF4C701BE01A501DF
S11310800E94D807DF91CF911F910F91FF90EF90AD
S1131090DF90CF90BF90AF900895CF93DF93EC0192
S11310A060E070E047E050E00E94D8078C819D81A9
S11310B02E813F81820F931F28853985820F931FCC
S11310C02A853B85820F931FDF91CF910895CF929C
S11310D0DF92EF92FF920F931F93CF93DF938C01D4
S11310E07B016A010E942606EC010E942906C01BAE
S11310F0D10B1C161D06C4F48E199F091816190667
S11311009CF4C801B70141E050E021E030E00E94C6
S1131110F205C801B7010E941E06C6010E942C06F2
S113112082E090E00E942107DF91CF911F910F91FF
S1131130FF90EF90DF90CF900895629FD001739F4E
S1131140F001829FE00DF11D649FE00DF11D929F5F
S1131150F00D839FF00D749FF00D659FF00D99279E
S1131160729FB00DE11DF91F639FB00DE11DF91FC2
S1131170BD01CF011124089597FB092E05260ED039
S113118057FD04D014D00AD0001C38F45095409573
S1131190309521953F4F4F4F5F4F0895F6F7909547
S11311A08095709561957F4F8F4F9F4F0895A1E271
S11311B01A2EAA1BBB1BFD010DC0AA1FBB1FEE1FCD
S11311C0FF1FA217B307E407F50720F0A21BB30B18
S11311D0E40BF50B661F771F881F991F1A9469F794
S11311E060957095809590959B01AC01BD01CF01F0
S10911F00895F894FFCFFE
S11311F600001F00BB54DFFD0000E0FFA8FADF5526
S11312060000FF07000004F9E007A8AADFADFBFE13
S11312160000013F00000000EF000025270510092B
S11312263A784D05180D383A1F001F1A180A0F068A
S11312364587320A070207050000010000000A82FA
S10712462700000079
S9030000FC
