:100000000C94E5010C94B3080C9402020C940202C7
:100010000C9402020C9402020C9402020C94020250
:100020000C9402020C9402020C9402020C94020240
:100030000C9402020C9402020C9402020C94020230
:100040000C9402020C9402020C9402020C94020220
:100050000C9402020C9402020C9402020C94020210
:100060000C9402020C9402020C94600A0C9402029A
:100070000C9402020C9402020C940202000B09215F
:100080005F3B00010004000B0010001A0021002259
:1000900000250028002D003400360039003A003FCA
:1000A00000440049004E00530059005E00630068A0
:1000B000006D007200730075007B00820088008C68
:1000C0000094009A00A000A700AE00B300B800BFE3
:1000D00000C500C800CC00D200D700DE00E400EB71
:1000E00000F000F700FD0103010A01100116011FD5
:1000F0000125012C01320135013A013D0144014B3A
:10010000014D01520157015C01610166016A016FF5
:10011000017401750178017D017E0187018C0191D7
:100120000196019B019F01A301A701AC01B101B898
:1001300001BD01C201C601CB01CC01D101D801D85A
:10014000500400004C2000020000000000000000ED
:10015000000000000000000000000000000000009F
:100160000000000000003C380010200080C109841D
:100170000000000000000000007C00D14462185222
:10018000A80002E239C17CDF73800000E3E33C3D5C
:10019000F3FF3D0F78618F139E39E3DFE186230C77
:1001A0001FE408800820008101008400000000088E
:1001B000000000009200D14F9224527080051E462C
:1001C0002341018C400000141322430A10430A18F3
:1001D000A18F14514514222186230A206209400070
:1001E000200081010084000000000800000000924F
:1001F0000087F4942421A8800512042542028C680B
:10020000603019D4A2810610810A192156983183D1
:1002100014022185549140A20A2003BCE7BBDFEB06
:100220008FDDE779F6FF18C98C7C920082946419FF
:10023000212080091208C97BC274699FCC2A54BE50
:100240008107FE81FA1A21569831831302214954FD
:100250006081210C10006318C52319962318C63934
:100260000918C952849231828E09A52107F3891297
:10027000103106248BC600034A54A18106108F0A50
:100280001E2126583E83E0C2214954608221080085
:1002900003E308FD2319A62318C631891555228BBF
:1002A00011C98FC50A622100801112203F8624885F
:1002B000419FCC4A5FE1810610830A1921265830FC
:1002C0008320222149549084208800046308C1239C
:1002D00019E62318C6306915552290924605051275
:1002E0006321008451124221462888A8603009A861
:1002F00061430A10430A18A10634504514222130E4
:10030000890888208800046318C52319962318C615
:100310003029122251209200851E119C9200846087
:10032000EFFDC139C87328000044087E3DF3F03D5D
:100330000FE87F063390390BC21E3089088FE048E2
:100340000003FCE7B91F198E231779F1C6F2228941
:100350003C92000004000012000420000000000095
:100360000008000003C000000000000000000000C2
:10037000000800000000000000204800000000000D
:100380000201000000402000000001009200000473
:1003900000000C0008000000000000001000000039
:1003A0000000000000000000000000000600000047
:1003B0000000000038380FE00000001C06000000BC
:1003C000402000000002007C000011241FBECFEF7F
:1003D000D0E1DEBFCDBF12E0A0E0B1E0E2E9F6E19E
:1003E00002C005900D92A23AB107D9F712E0A2EA35
:1003F000B2E001C01D92A13BB107E1F70E940502E6
:100400000C94470B0C94000008950E94F3090E947D
:10041000CB047894009100011091010180E090E0FC
:1004200060E070E040EF50E020E431E00E943A02EA
:100430000E94B9020E9486090E942909813029F48C
:10044000009118011091190104C00091020110914E
:1004500003010E943C06EC010E943F069C0180E0E3
:1004600090E060E070E0AE010E943A02FFCF0E948F
:10047000CB0408958F929F92AF92BF92CF92DF925A
:10048000EF92FF920F931F93CF93DF93EC015B01E9
:1004900048018C01040F151F7B01E20EF31E0E9420
:1004A0003C060817190724F00E943C06082F192F54
:1004B0000E943F06E816F90624F00E943F06E82E47
:1004C000F92EDD2314F4C0E0D0E06801CC1ADD0A77
:1004D0001C141D040CF03DC08501BB2014F400E089
:1004E00010E0E01AF10A1E141F049CF5CE01B801B9
:1004F000A60197010E940806CE01B8010E943406A9
:10050000C4010E94420681E8E816F104CCF086019D
:100510001695102F002717950795E701C8010E942F
:100520003707C058D040C138D105C4F7C70180583B
:10053000904097012158304020787C01E21AF30A5C
:10054000CE9CC001CF9C900DDE9C900D11240E948A
:100550003707DF91CF911F910F91FF90EF90DF90C0
:10056000CF90BF90AF909F908F9008950E944206C9
:1005700008950E9447068FEF9FEF9093A502809306
:10058000A4029093A7028093A60208950F931F934D
:10059000CF93DF93EC018B010E943C06C817D9076B
:1005A00080F50E943F060817190758F522C0809170
:1005B000A4029091A5020817190769F0CE01602FD7
:1005C000712F0E943406D093A702C093A602009315
:1005D000A4021093A50281E090E00E943707809169
:1005E000A6029091A70201969093A7028093A6027B
:1005F00008C08091A6029091A702C817D907F1F60A
:10060000D6CFDF91CF911F910F9108952F923F92F6
:100610004F925F926F927F928F929F92AF92BF9212
:10062000CF92DF92EF92FF920F931F93CF93DF93BE
:1006300000D000D0CDB7DEB72C014032510551F4C7
:10064000EDE7F0E0E4916E2E77247594679475944D
:100650006794C4C0EFE7F0E0E4914E1B51095523C5
:100660000CF4B7C0A0E8B0E0FD01849190E0481719
:1006700059070CF0B1C0CA0103969C01220F331F29
:10068000F901E458FF4F9491F901E358FF4F849129
:10069000F92FE0E090E03F01682A792A0DE710E0A9
:1006A000F801F491F9831416150684F4F901E6585B
:1006B000FF4F9491F901E558FF4F8491592F40E085
:1006C00090E0482B592B641A750A02C040E050E0B4
:1006D000FD01849190E0039682959295907F9827F2
:1006E000807F9827480F591F9A012770307080E843
:1006F00090E002C0959587952A95E2F7A82F9A0178
:10070000359527953595279535952795E1E8F0E0BE
:10071000E491CA01860D971D9595879595958795C6
:100720009595879580959095820F931F1C012E0EAD
:10073000311CF981FF2309F451C0A62EB72E88245D
:10074000D62CAA830F2EF0E8CF2EF02D9924790114
:100750000894E11CF11CF901E458FF4FE491DD20FD
:1007600061F18A818B83EC8300E010E08B819C81B6
:10077000892331F0C801840D951DB5010E94C60280
:10078000EB81E695EB83EE23A1F4F701E458FF4FEC
:100790000894E11CF11CE491EE2349F4C301801B91
:1007A000910B893091054CF0CB829C8202C0EC8386
:1007B000CB820F5F1F4F0D15C8F29701220D331D1D
:1007C00083940894A11CB11CF9818F1609F0BFCF46
:1007D00005C06624772402C066247724862D972DD1
:1007E0000F900F900F900F90DF91CF911F910F916D
:1007F000FF90EF90DF90CF90BF90AF909F908F9041
:100800007F906F905F904F903F902F900895AF92A0
:10081000BF92CF92DF92EF92FF920F931F93CF93ED
:10082000DF93082F192F6B01EA0159010E94B902C9
:100830001C141D04A4F4E02EF12E00E010E0F701DA
:1008400041917F01CE01B50150E00E94060301965F
:10085000C80FD91F0F5F1F4F0C151D0581F7DF91C2
:10086000CF911F910F91FF90EF90DF90CF90BF90AD
:10087000AF900895CF93DF939B01EA01E82FF92F02
:10088000DF010D900020E9F71197BD016E1B7F0B72
:10089000A9019E010E940704DF91CF910895FC01F8
:1008A000A62FB72F03C09191891729F48D91882322
:1008B000D1F781E0089580E008951F93CF93DF93EF
:1008C000EB01982F91509E3F90F0882319F082E021
:1008D00090E002C080E090E0C80FD91F8881998124
:1008E0000E94420688E090E00E9437070BC018E0A3
:1008F000888199810E94420681E090E00E9437073A
:100900001150B1F7DF91CF911F910895CF92DF92EF
:10091000EF92FF920F931F93CF93DF938C016B01A4
:10092000EA01790148E050E028E030E00E94080642
:10093000C801B6010E9434068E01085F1F4F8991DD
:10094000B7010E945D04C017D107C9F7DF91CF91AD
:100950001F910F91FF90EF90DF90CF900895089531
:1009600085B7806885BF85B7806885BF8FE78AB9FE
:100970008FEF84B90895009769F020E030E0E9EF47
:10098000F0E03197F1F700C000002F5F3F4F2817CC
:100990003907A9F708950E94B0045A9884E690E0B8
:1009A0000E94BB045A9A84E690E00E94BB045C9AC1
:1009B0005B9A5D9A589859985E9A5C9888E285B9D6
:1009C0005B985B9A5C9A5C9881E185B95B985B9ACD
:1009D0005C9A8CE390E00E94BB045C988BEC85B938
:1009E0005B985B9A5C9A81E085B95B985B9A5C98AE
:1009F00080EC85B95B985B9A5C9A86E285B95B98D6
:100A00005B9A88E085B95B985B9A5C9881EC85B9C4
:100A10005B985B9A5C9A80E185B95B985B9A5C987D
:100A200085EC85B95B985B9A5C9A85E385B95B98A0
:100A30005B9A8EE385B95B985B9A5C9886E385B98F
:100A40005B985B9A5C9A80E485B95B985B9A5C984A
:100A500080EB85B95B985B9A5C9A8AE485B95B9870
:100A60005B9A5C9881EB85B95B985B9A5C9A15B848
:100A70005B985B9A8BE185B95B985B9A5C9886EB97
:100A800085B95B985B9A5C9AEEE4F1E0CF0104963D
:100A9000219125B95B985B9AE817F907C9F75C982B
:100AA00087EC85B95B985B9A5C9A85EB85B95B9816
:100AB0005B9A5C9886EF85B95B985B9A5C9AEAE4EE
:100AC000F1E0CF010396219125B95B985B9AE81775
:100AD000F907C9F75C9882EF85B95B985B9A5C9AD5
:100AE00015B85B985B9A5C9886E285B95B985B9ACF
:100AF0005C9A81E085B95B985B9A5C988AE385B9DA
:100B00005B985B9A5C9A85E585B95B985B9A5C9883
:100B100080EE85B95B985B9A5C9AEAE3F1E0CF01DD
:100B20000F96219125B95B985B9AE817F907C9F7E9
:100B30005C9881EE85B95B985B9A5C9AEAE2F1E099
:100B4000CF010F96219125B95B985B9AE817F907B9
:100B5000C9F75C988AE285B95B985B9A5C9AE5E292
:100B6000F1E0CF010496219125B95B985B9AE817D3
:100B7000F907C9F75C988BE285B95B985B9A5C9A38
:100B8000E0E2F1E0CF010496219125B95B985B9AF0
:100B9000E817F907C9F75C9884E385B95B985B9A15
:100BA0005C9A5C9884EB85B95B985B9A5C9A15B803
:100BB0005B985B9A5C9887EB85B95B985B9A5C9ACB
:100BC00087E085B95B985B9A5C988CE285B95B9805
:100BD0005B9A5C9A20EF30E040E451E00BC015B81E
:100BE0005B985B9A15B85B985B9A0197C1F72150A7
:100BF000304011F0CA01F3CF5C9889E285B95B9867
:100C00005B9A5C9A82E390E00E94BB04599A089533
:100C10005C98EAE2E5B95B985B9A5C9A95B95B9857
:100C20005B9A85B95B985B9A840F951F019795B97C
:100C30005B985B9A85B95B985B9A5C988BE285B907
:100C40005B985B9A5C9A75B95B985B9A65B95B989F
:100C50005B9A620F731F6150704075B95B985B9A25
:100C600065B95B985B9A08955C988CE285B95B984E
:100C70005B9A5C9A0895089580EF90E0089580E46F
:100C800091E008959093A9028093A8020895CF93CC
:100C9000DF930E943C06EC010E943F069C0180E02D
:100CA00090E060E070E0AE010E940806DF91CF9115
:100CB0000895FB012FEF24B942B1542F577F282FFD
:100CC0002370B9F0322FDB016C9165B952B942B98A
:100CD00011966C91119765B952B942B9129631507B
:100CE00099F7215030E02F5F3F4F220F331FE20F63
:100CF000F31F9595879595958795009731F122B1CA
:100D0000322F377F408145B932B922B9418145B987
:100D100032B922B9428145B932B922B9438145B9C4
:100D200032B922B9448145B932B922B9458145B9B0
:100D300032B922B9468145B932B922B9478145B99C
:100D400032B922B938960197E9F60895FF920F93C8
:100D50001F93CF93DF938C01EB01BA0122B1322FA5
:100D6000377F009791F1FF24FA9450E00F3F11056F
:100D700014F4802F01C08F2D4881952F01C04E2F74
:100D8000A42FB0E0AA0FBB1FA60FB71FEC91E5B9C7
:100D900032B922B91196EC911197E5B932B922B95D
:100DA0009F5FFE01E90FF11DE0814E1759F498177E
:100DB00068F390E0081B190BC80FD91F0115110526
:100DC000A9F603C09817D8F2F4CFDF91CF911F9105
:100DD0000F91FF9008952FEF24B9282F277041F02D
:100DE00065B95B985B9A45B95B985B9A2150C1F7EE
:100DF000969587959695879596958795009799F1FD
:100E000022B165B95B985B9A45B95B985B9A65B905
:100E10005B985B9A45B95B985B9A65B95B985B9AFE
:100E200045B95B985B9A65B95B985B9A45B95B98E5
:100E30005B9A65B95B985B9A45B95B985B9A65B9B3
:100E40005B985B9A45B95B985B9A65B95B985B9ACE
:100E500045B95B985B9A65B95B985B9A45B95B98B5
:100E60005B9A019771F608950E94EB0608954091F0
:100E7000A8026091A9020E94EB060895CF93DF9328
:100E8000EC01CB010E944206CE010E943707DF91A0
:100E9000CF910895089580E480937C0087E8809343
:100EA0007A000895EF92FF920F931F93CF93DF93F1
:100EB000DB01ECE7F0E09081987F90839081877070
:100EC000982B9083EAE7F0E08081806880838081BE
:100ED00080648083808184FFFDCF442331F1CD0184
:100EE00002964150242F30E0220F331F280F391F64
:100EF000EAE7F0E00F2EF8E7EF2EFF24F02D49E7A8
:100F000050E0808180648083808184FFFDCFE70191
:100F10008881EA019881192F00E0B801680F711DDE
:100F20006D937D93A217B30761F7EAE7F0E0808144
:100F30008F778083DF91CF911F910F91FF90EF907A
:100F400008954F925F926F927F928F929F92AF928D
:100F5000BF92CF92DF92EF92FF920F931F932B01DC
:100F60003C01BA01A901D801C701960185016C01B4
:100F70007D01C41AD50AE60AF70A53014201841A10
:100F8000950AA60AB70AC501B401A90198010E94F1
:100F9000EB0AAB01BC01D701C601B595A7959795A2
:100FA00087958A019B01080F191F2A1F3B1FC90142
:100FB000B801A70196010E940A0B822F932F1F915F
:100FC0000F91FF90EF90DF90CF90BF90AF909F90E8
:100FD0008F907F906F905F904F900895AF92BF92E7
:100FE000CF92DF92EF92FF920F931F93CF93DF93F5
:100FF0007C016B015A01FB01E40FF51FEE7FE80F46
:10100000F91F60817181E6012EC021968F01219127
:10101000319126173707CCF3CA01880F991FD701E2
:10102000A80FB91F8D919C911197681779077CF4CF
:10103000FA013197EE0FFF1FEE0DFF1D415050409A
:10104000DF0132978281938168177907BCF34C17CF
:101050005D07FCF0F8019183808311963C932E93F9
:101060002196415050404C175D079CF0CE01880FEF
:10107000991F8701080F191FF80120813181261758
:10108000370754F6FE013196EE0FFF1FEE0DFF1DE0
:10109000BCCFC416D50624F4C701B6010E94EE07E2
:1010A000CA15DB052CF4C701BE01A5010E94EE079D
:1010B000DF91CF911F910F91FF90EF90DF90CF9034
:1010C000BF90AF900895CF93DF93EC0160E070E0A4
:1010D00047E050E00E94EE078C819D812E813F8188
:1010E000820F931F28853985820F931F2A853B85A0
:1010F000820F931FDF91CF910895CF92DF92EF92ED
:10110000FF920F931F93CF93DF938C017B016A01B2
:101110000E943C06EC010E943F06C01BD10B1C162E
:101120001D06C4F48E199F09181619069CF4C801EF
:10113000B70141E050E021E030E00E940806C8011C
:10114000B7010E943406C6010E94420682E090E088
:101150000E943707DF91CF911F910F91FF90EF9081
:10116000DF90CF9008951F920F920FB60F92112427
:101170008F939F938091A2029091A3028130910559
:1011800059F4469A8091A2029091A30201969093FD
:10119000A3028093A2020DC08091A2029091A302AB
:1011A0008230910511F4469804C01092A302109267
:1011B000A2029F918F910F900FBE0F901F901895D4
:1011C000CF93DF9300D000D0CDB7DEB792E4998300
:1011D0008A836B83CE01019663E00E94080A0E9415
:1011E000FD098823E1F78091AA0281700F900F908A
:1011F0000F900F90DF91CF9108950F931F93CF938E
:10120000DF9300D000D0CDB7DEB78B0192E4998395
:101210008A83CE01019662E00E94080A83E48983F2
:10122000CE01019662E00E94080ACE01019662E0BA
:101230000E943E0A8A81F80180838091AA0281700F
:101240000F900F900F900F90DF91CF911F910F9102
:1012500008950F931F93CF93DF931092A3021092E0
:10126000A20252985A9A81E08DBB82E08093690075
:1012700082E160E80E94E0088823F1F083EC99E0C5
:101280000197F1F700C00000C4E5D1E002EA12E0E6
:10129000FE013197808168810E94E008882371F007
:1012A00089EF90E00197F1F700C000002296C01787
:1012B000D10771F781E003C080E001C080E0DF91D9
:1012C000CF911F910F91089543984798449A44985D
:1012D000479A439A08958091A2029091A3020097A1
:1012E000D1F7439889EF90E00197F1F700C0000033
:1012F000439A89EF90E00197F1F700C0000081E088
:1013000090E09093A3028093A202089587B1886F22
:1013100087B9439844984598479A469883E08A95B8
:10132000F1F70000449A83E08A95F1F700004498B1
:10133000479883E08A95F1F70000449A83E08A9504
:10134000F1F700004498479A83E08A95F1F700008E
:10135000439A81E0089511B8449A80B14498382F97
:1013600020E0449A80B1449890E0822B932B08951A
:10137000EF92FF920F931F93CF93DF938091A2027E
:101380009091A3028230910531F54798449A449890
:10139000479A89EF90E00197F1F700C0000000EF55
:1013A00010E00F2EF0E4EF2EF1E0FF2EF02D07C03D
:1013B0000E94AB092197E1F70150104011F0E701BD
:1013C000F7CF4798449A4498479A1092A3021092F4
:1013D000A20281E001C080E0DF91CF911F910F91C7
:1013E000FF90EF90089584E38093B8008FEF80938F
:1013F000BB0084E08093BC0008958091BC008170A4
:1014000008950E94FD098823E1F78091A1020895C3
:101410000F931F93CF938C01C62F0E94FD09882341
:10142000E1F7C093AB02F80180818093AC0280FDAC
:101430000CC0C23050F0D8011196EDEAF2E081E024
:101440009D9191938F5F8C17D9F71092AA0288EF24
:101450008093A10285EA8093BC00CF911F910F91E8
:1014600008950E94FD098823E1F71092AA0288EFEF
:101470008093A10285EA8093BC0008951F93CF93C7
:10148000DF93D82F192FC62F0E94FD098823E1F77B
:101490008091AA0280FF0DC0CC2359F0ACEAB2E0E3
:1014A0009D2FED2FF12F8D9181938E2F891B8C17FE
:1014B000D0F38091AA028170DF91CF911F9108959E
:1014C0001F920F920FB60F9211242F933F938F9379
:1014D0009F93EF93FF938091B9008832D1F08932C6
:1014E00040F48031A1F08831A1F0883009F061C06A
:1014F0000EC08034B9F1813420F4883309F059C02A
:1015000054C0803519F1883509F053C03DC01092A0
:10151000B0028091B0029091AB02891770F4E82F6D
:10152000F0E0E455FD4F90819093BB008F5F809376
:10153000B00285E88093BC0043C08091AA0281601C
:101540008093AA0284E98093BC003AC08091B002E3
:101550009091BB00E82FF0E0E455FD4F90838F5F42
:101560008093B0022091B00230E08091AB0290E015
:1015700001972817390724F485EC8093BC0020C01C
:1015800085E88093BC001CC08091BB00E091B00254
:10159000F0E0E455FD4F80838091AA028160809342
:1015A000AA0284E98093BC000BC085EA8093BC004A
:1015B00007C08091B9008093A10284E08093BC00B1
:1015C000FF91EF919F918F913F912F910F900FBEBF
:1015D0000F901F901895629FD001739FF001829F1A
:1015E000E00DF11D649FE00DF11D929FF00D839FB2
:1015F000F00D749FF00D659FF00D9927729FB00D4F
:10160000E11DF91F639FB00DE11DF91FBD01CF0161
:101610001124089597FB092E05260ED057FD04D0FE
:1016200014D00AD0001C38F450954095309521957F
:101630003F4F4F4F5F4F0895F6F790958095709507
:1016400061957F4F8F4F9F4F0895A1E21A2EAA1BDD
:10165000BB1BFD010DC0AA1FBB1FEE1FFF1FA21762
:10166000B307E407F50720F0A21BB30BE40BF50B5F
:10167000661F771F881F991F1A9469F760957095E8
:10168000809590959B01AC01BD01CF010895F89420
:02169000FFCF8A
:1016920000001F00BB54DFFD0000E0FFA8FADF5589
:1016A2000000FF07000004F9E007A8AADFADFBFE77
:1016B2000000013F00000000EF000025270510098F
:1016C2003A784D05180D383A1F001F1A180A0F06EE
:1016D2004587320A070207050000010000000A825E
:1016E2002700003A0440D012143280171618041949
:1016F200021A7B03060C003E007000710072117327
:1017020000A20211017A207B1C7C287D3C7E557F41
:1017120068807681808288838F849685A386AF874E
:10172200C488D789E813E0000010000D001420A53A
:1017320005AB072475256326A59F78A068A103A69B
:10174200DFA7DFA8F0A990AA9413E50E610F4B164C
:10175200021E37210222912907330B350B371D3820
:1017620071392A3C784D404E20690C6B6074198D9A
:101772004F8E008F0090009100920096009A80B0E8
:1017820084B10CB20EB382B80A431444F045344615
:10179200584728483A59885A885B445C675D495ED5
:1017A2000E640465206605940495086C0A6D556EF6
:1017B200116F9F6A400140024013E715024F8050AB
:1017C2008051005222535E5480589E41083F00755A
:1017D2000576E14C0077013DC24B09C9604138569C
:1017E2004034113B02A48996009730982099309A90
:1017F200849B299C039D4C9E3F78047901C8F07913
:101802000FC8007910C87E790AC880790BC801799F
:101812000CC80F790DC8207909C8807902C8C0792F
:1018220003C8407905C83079260903550056403B64
:0218320042F87A
:00000001FF
